:100000000C946D000C948A000C948A000C948A0065
:100010000C948A000C948A000C948A000C948A0038
:100020000C948A000C948A000C948A000C948A0028
:100030000C948A000C94F4000C948A000C948A00AE
:100040000C94C7000C948A000C948A000C948A00CB
:100050000C948A000C948A000C948A000C948A00F8
:100060000C948A000C948A000C948A000C948A00E8
:100070000C948A000C948A000C948A000306090CE4
:10008000101316191C1F2225282B2E313336393C0C
:100090003F414447494C4E515355585A5C5E60624B
:1000A0006466686A6B6D6F70717374757678797A4F
:1000B0007A7B7C7D7D7E7E7E7F7F7F0306090D10AF
:1000C0001316191D2023272A2D3135383C4044486A
:1000D0004C5055595E63686E737911241FBECFEF83
:1000E000D8E0DEBFCDBF11E0A0E0B1E0E6E5FEE084
:1000F00002C005900D92A432B107D9F711E0A4E235
:10010000B1E001C01D92A537B107E1F70E946E0270
:100110000C9429070C94000082E084BD93E095BD07
:1001200080936E0080E387BD18BC08958FEF9FEF2A
:10013000909389008093880010928B0010928A001F
:1001400010928700109286001092800088E08093C1
:1001500081001092820082E080936F0008959FEFEB
:1001600092B911B880EC85B98FE384B923E028B93E
:1001700097B99BB91AB882E084BD25BD80936E0003
:1001800080E387BD18BC0E949600789408951F9262
:100190000F920FB60F9211248F939F93809141017C
:1001A00084608093410190912401892F8F778F374C
:1001B00051F480914101816080934101809152010D
:1001C0008F5F809352019F3F29F4809141018860A5
:1001D000809341019F5F909324019F918F910F9095
:1001E0000FBE0F901F9018951F920F920FB60F928F
:1001F00011241F932F933F934F935F936F937F939C
:100200008F939F93AF93BF93EF93FF934098109179
:100210004B01163008F525B141E050E0CA01012E2E
:1002200002C0880F991F0A94E2F78095822385B94E
:100230001F5F163089F085B1012E02C0440F551F93
:100240000A94E2F7842B85B9812F0E944B01909389
:100250008900809388000AC0809181008E7F8093FE
:1002600081008091410180618093410110934B0195
:10027000409AFF91EF91BF91AF919F918F917F91A4
:100280006F915F914F913F912F911F910F900FBEF2
:100290000F901F901895BF92CF92DF92EF92FF922E
:1002A0000F931F93CF93DF9330915201C82FD0E06B
:1002B000FE01EB5CFE4FB08066E0E62EF12CEC0E0A
:1002C000FD1EF701EB5CFE4FC080CB1420F44B2DDC
:1002D0009C2D12E003C04C2D9B2D10E0FE01E75D2C
:1002E000FE4FD080F701E75DFE4F0081D01621F46C
:1002F000941769F418600BC0941731F0931739F014
:10030000431721F482E018271C6001C0116010FF20
:100310008DC0931738F4341728F4532F591B642FCA
:10032000691B08C0232F241B892F841B522F682F81
:1003300082E01827352F20E0E62FF0E0C901BF0149
:100340000E940207462F50E04E9FC0014F9F900D24
:100350005E9F900D1124281B390B220F331FE217CB
:10036000F30720F02E173F0711F460FD6F5F11FDBA
:100370006195462F50E080E091E0841B950B2D2D78
:10038000332727FD3095829FB001839F700D929F88
:10039000700D1124802F992787FD90959C01429F15
:1003A000C001439F900D529F900D1124680F791F3B
:1003B00077FD15C067FF0EC0872F992787FD9A9597
:1003C0006F777070672B19F0DC0111963AC0DC0171
:1003D000A16037C0A72FBB27A7FDBA9532C08827D9
:1003E0009927861B970B87FF1AC08F779070892BF0
:1003F00041F0CB0160E071E00E941607DB0111972C
:1004000020C0CB0160E071E00E94160770956195F5
:100410007F4F6160AA27BB27A61BB70B12C0CB0179
:1004200060E071E00E941607DB010BC011FF05C000
:10043000A02FBB27A7FDB09504C0AD2DBB27A7FDFE
:10044000B095FE01E05FFE4F3081812F12FF15C095
:1004500011FF09C0FE01E75DFE4F0083FE01EB5C6A
:10046000FE4FC0820AC0F701E75DFE4FD08245E330
:1004700051E0E40EF51EF701B08283FF0CC020911D
:10048000530181E090E002C0880F991FCA95E2F7FE
:10049000282B20935301832F992787FD90954EE8B1
:1004A00050E0849F9001859F300D949F300D112462
:1004B000205D3A48A49FC001A59F900DB49F900D68
:1004C0001124280F391FC901DF91CF911F910F917E
:1004D000FF90EF90DF90CF90BF900895DF92EF9262
:1004E000FF920F931F93CF93DF93809141018F7EF3
:1004F000809341011092530186E080934B0110924A
:100500005201C9E2D1E0A5E3B1E080E090E01882B9
:100510001E821C9216961C921697FC01E45BFE4FFD
:100520001082FC01ED5BFE4F108201962196119620
:100530008630910561F70E94AF0080ED97E024EFCF
:1005400031E0F9013197F1F70197D9F7419880ED42
:1005500097E024EF31E0F9013197F1F70197D9F7EE
:100560000E940B0580ED97E024EF31E0F90131970F
:10057000F1F70197D9F780E060E040E051E00E9498
:10058000DA0510E0E1E0EE2EF12C72E3D72E04E163
:100590008091410183FF05C080914101877F809355
:1005A00041018091410182FF09C0809141018B7F0F
:1005B0008093410140980E941805409A8091410122
:1005C00080FF1BC0809141018E7F80934101409844
:1005D00010924B01809141018F7E8093410180E018
:1005E0000E944B0190938900809388008091810044
:1005F000816080938100289A409A8091410184FF14
:100600002EC080915301882351F110915301CFE204
:10061000D1E0ABE3B1E040E050E0612F70E0970142
:10062000042E02C0220F331F0A94E2F7C901862369
:1006300097238217930751F4FA01E45BFE4F808100
:100640008883FA01ED5BFE4F80818C934F5F5F4F93
:10065000219611964630510511F71092530111233E
:1006600009F496CFACE4B1E040E050E0612F70E0D7
:100670009701042E02C0220F331F0A94E2F7C9012A
:10068000862397238217930751F48C91882311F4C2
:100690000C9301C01C92FA01ED5BFE4FD0824F5FBC
:1006A0005F4F11964630510519F772CF803410F024
:1006B00080E80895E82FFF27E7FDF095E458FF4F05
:1006C00084910895803801F18823F1F087FD02C0FC
:1006D00090E002C0819591E0803411F4EEE30BC00C
:1006E00081341CF0EFE7E81B02C0E82FE150E03452
:1006F00010F080E806C0FF27E7FDF095E458FF4FB3
:100700008491913009F481950895803801F188230E
:1007100011F48FE7089587FD8195803411F480E00E
:100720000895813424F0E82FE15491E003C0EFE311
:10073000E81B90E0E03410F080E806C0FF27E7FDFA
:10074000F095E458FF4F8491913009F48195089514
:10075000E82F805E813410F080E80895EE2311F4D4
:1007600080E00895E7FD02C090E002C0E19591E0CD
:10077000E03211F48FE706C0FF27E7FDF095E6545D
:10078000FF4F8491913009F481950895382F87FFA8
:1007900002C080E80895882311F480E008958F371F
:1007A00011F480E40895ECE7F0E020E0482F5527AD
:1007B00047FD509504C02F5F31962F3329F0849167
:1007C00090E084179507BCF3822F992787FD9095B9
:1007D000FC01E458FF4F44913417E4F4222311F450
:1007E00050E004C085589F4FFC015491942F951BF5
:1007F000892F97FD8F5F8595850F38174CF0381737
:1008000011F490FD05C03D351CF4822F8F5F0895D3
:10081000822F089583589F4FFC018491831719F408
:10082000822F8E5F0895822F8F5F08951F938038E7
:1008300059F087FD02C010E002C0819511E00E94CE
:10084000C603113009F481951F9108951F93982FC5
:100850008058823010F480E810C097FD02C010E08C
:1008600002C0919511E0892F0E94C603982F112391
:1008700019F480E4891B01C0805C1F910895482F02
:10088000803811F480E8089587FD02C050E002C06E
:10089000419551E0EBEBF0E020E0642F772767FD16
:1008A000709504C02F5F31962F3129F0849190E02C
:1008B00086179707BCF3822F992787FD9095FC0137
:1008C000E554FF4F34912F3119F434170CF43FE7FE
:1008D0004317B4F4222311F460E004C086549F4F00
:1008E000FC016491932F961B892F97FD8F5F85954F
:1008F000860F48178CF0481761F490FF0AC00CC0AF
:1009000084549F4FFC018491841719F4822F8E5FC9
:1009100004C0822F8F5F01C0822F513009F481956E
:1009200008951F9387FD02C010E002C0819511E079
:1009300067FF02C061951260861724F4982F462F36
:10094000146002C0962F482F992311F460E017C05D
:10095000941711F46FE713C02FE7929F90011124B1
:10096000C901642F70E00E940207649FC001112436
:100970004695840F911D8217930708F46F5F862FA9
:100980000E943F04282F412F50E012FF03C080E453
:10099000821B282FCA0183709070009781F08130EC
:1009A000910531F4222369F080E8821B282F07C0CB
:1009B000029711F4219503C0222319F02058822FA9
:1009C00001C080E81F91089591E09093270198B1AC
:1009D000282F207F9F70292B28B94398429A28EE10
:1009E00033E0F9013197F1F74298F9013197F1F7C6
:1009F00098B18295807F9F70982B98B9429AC901CF
:100A00000197F1F74298C9010197F1F780E197E268
:100A10000197F1F7089582E00E94E40488E20E94C1
:100A2000E40481E00E94E4048EE00E94E40408955E
:100A300020912801822F807F81F580912601E0910D
:100A40002501482F50E02E2F30E0E81738F4421BE4
:100A5000530B423051050CF47FC006C0241B350BEC
:100A6000223031050CF478C0F0E0EB5AFE4FE08103
:100A70002091230130E08E2F90E0019640912801D3
:100A80002817390719F44F70406502C04F70406154
:100A900040932801E09323010895803111F4439895
:100AA0001FC0803211F4439826C0803311F443985C
:100AB00027C0803491F443984298809125018F316A
:100AC00020F48F5F8093250102C010922501809150
:100AD0002801805F809328010895803549F4439A66
:100AE00088B1E0912501F0E0EB5AFE4F908110C0F3
:100AF000803619F4439A429810C0803791F4439A93
:100B000088B1E0912501F0E0EB5AFE4F908192957B
:100B1000907F8F70982B98B9429A205F209328017C
:100B200008958038C9F4439A4298809125018F3105
:100B300020F48F5F8093250102C0109225018091DF
:100B400028018F70809328019091260180912501C2
:100B5000981711F4109227010895982F823048F5C4
:100B6000603238F581E08093270180912601E82FDB
:100B7000F0E0EB5AFE4F60689295990F990F907CC8
:100B8000962B90838F3120F48F5F8093260102C0D3
:100B90001092260180912601E82FF0E0EB5AFE4FDB
:100BA00040838F3120F48F5F809326010895109247
:100BB00026010895DF92EF92FF920F931F93CF9338
:100BC000DF93D82E062FEA0141155105D9F081E0B7
:100BD0008D15C0F06031B0F410E0E62EFF2406C0A1
:100BE000612F600F8D2D0E94AD051F5FE12FF0E09A
:100BF000CF018E0D9F1D41972CF4EC0FFD1F4081FE
:100C0000442371F7DF91CF911F910F91FF90EF90E7
:100C1000DF900895AF92BF92CF92DF92EF92FF9252
:100C20000F931F93CF93DF93E82ED62EB42EC22EB0
:100C3000F02E81E08E1508F44FC08FE0861708F47F
:100C40004BC007FF0BC08E2D4DE20E94AD0511E099
:100C500081E0C3E0D0E0AB2CBB242BC0F19410E0CA
:100C6000F7CFFE1A0F5FEF15E4F7813029F4003358
:100C700019F42A153B05BCF4612F6D0D1F5FCA15D1
:100C8000DB0561F48E2D4EE20E94AD05612F6D0DE6
:100C90008E2D402F0E94AD051F5F04C08E2D402F6A
:100CA0000E94AD0580E02197CC2319F4012F0D0D92
:100CB00010C09E0121503040FE01E15EFE4FE081F8
:100CC00000E3D1CF8E2D602F40E20E94AD051F5F63
:100CD0000F5F1C15B8F301C010E0812FDF91CF9199
:100CE0001F910F91FF90EF90DF90CF90BF90AF904A
:100CF00008956F927F928F929F92AF92BF92CF9200
:100D0000DF92EF92FF920F931F93CF93DF93982E72
:100D1000C62ED42E822E780181E0891508F462C097
:100D20009FE0961708F45EC017FF06C0892D4DE2BC
:100D30000E94AD05C39404C0F094E194F108F394CB
:100D40003EE1A32E31E0B32E00E041E0C5E0D0E06B
:100D50006D2C772431C0E20EF31ED3948E159F05BF
:100D6000D4F7413031F4E0E3DE1619F46615770567
:100D7000CCF4602F6C0D102F1F5FC615D70561F4E2
:100D8000892D4EE20E94AD05612F6C0D892D4D2DF0
:100D90000E94AD050E5F05C0892D4D2D0E94AD0549
:100DA000012F40E08EEF9FEFA80EB91E2197CC23B4
:100DB00019F4102F1C0D14C0BE0161507040F501D4
:100DC0008081918120E3D22E22273327281B390BE3
:100DD000C5CF892D612F40E20E94AD050F5F1F5FD7
:100DE0000815B8F38C2DDF91CF911F910F91FF90D3
:100DF000EF90DF90CF90BF90AF909F908F907F90BB
:100E00006F900895AA1BBB1B51E107C0AA1FBB1F0F
:100E1000A617B70710F0A61BB70B881F991F5A9586
:100E2000A9F780959095BC01CD01089597FB092EF7
:100E300007260AD077FD04D0E5DF06D000201AF49B
:100E4000709561957F4F0895F6F7909581959F4F26
:060E50000895F894FFCFA5
:100E5600556E6974205A65726F205A65726F002646
:100E6600020AFDFB000AFFFFF6FF9CFF18FCF0D804
:040E7600FFF69CFFE8
:00000001FF
