:100000000C943E000C945B000C945B000C945B0021
:100010000C945B000C945B000C945B000C945B00F4
:100020000C945B000C945B000C945B000C945B00E4
:100030000C945B000C94EB040C945B000C945B0040
:100040000C94C6040C945B000C945B000C945B0055
:100050000C945B000C945B000C945B000C945B00B4
:100060000C945B000C945B000C945B000C945B00A4
:100070000C945B000C945B000C945B0011241FBE7D
:10008000CFEFD8E0DEBFCDBF11E0A0E0B1E0E2E607
:10009000FDE002C005900D92AE31B107D9F711E035
:1000A000AEE1B1E001C01D92A037B107E1F70E94B7
:1000B000C4050C94AF060C94000098B1282F207F43
:1000C0009F70292B28B94398429A28EE33E0F90112
:1000D0003197F1F74298F9013197F1F798B182958C
:1000E000807F9F70982B98B9429AC9010197F1F7C8
:1000F0004298C9010197F1F780E197E20197F1F782
:10010000089582E00E945D0088E20E945D0081E027
:100110000E945D008CE00E945D00ECE2F1E080E274
:10012000819391E0EC34F907D9F7109226011092EF
:100130002701109228011092290110922A01109291
:100140002B01089530911F01832F8295869583702E
:10015000632F6F71882309F08CC0E62FF0E0AF01A8
:100160004770507053E0F695E7955A95E1F7EA5DD0
:10017000FE4FE0818FEF90E0042E02C0880F991FA0
:100180000A94E2F78E23A9F081E090E002C0880F84
:10019000991F4A95E2F7982F20912B0107C0892FCC
:1001A0008E2361F5990F09F423E66F5F9923B9F760
:1001B00025C0632F6871262F26952695269531E058
:1001C000822F90E0FC01EA5DFE4FE081EE2381F496
:1001D0003F5F039714F020E001C02F5F862F90E06F
:1001E000489714F0685101C0685F353049F70895A9
:1001F00020912B0191E0892F8E2319F020932B0160
:1002000007C0990F6F5F9923B1F783E680932B01A5
:10021000E62FF0E0CF018F709070892B91F08091E4
:10022000200186958F71681761F480911F018F7787
:1002300080931F01E45DFE4F908190931E01439ACD
:1002400012C080911F01806880931F01962F9F70BC
:100250009068E071F070EE0FFF1FEE0FFF1F9E2BF6
:1002600090931E014398809120018160809320012A
:1002700039C0813019F4429A92E082C0932F90786D
:10028000823049F44298992309F079C08091200185
:1002900080FD75C075C0992359F12091200120FF80
:1002A00013C0822F8E7F8093200198B180911E0110
:1002B0008295807F9F70892B88B9862F880F207C3C
:1002C000282B2093200155C0439A3F7730931F017C
:1002D000216020932001E62FF0E0E45DFE4F908145
:1002E00090931E0188B1907F8F70982B98B941C070
:1002F0008091200180FF3FC08E7F8093200120915C
:100300001E0188B1922F9295907F8F70982B98B98B
:10031000462F50E0FA01E45DFE4F80812817B9F4C2
:10032000FA01E871F07083E0F595E7958A95E1F7B9
:10033000EA5DFE4F4770507081E090E002C0880F88
:10034000991F4A95E2F780952081822380838091CE
:10035000200186958F718F3111F490E002C0982FA3
:100360009F5F9F71990F80912001817C892B8093E1
:10037000200191E005C083E680932B01FACF93E042
:100380009295990F907E80911F0180786F71892BD3
:10039000862B80931F010895882379F4623031F40D
:1003A00080912A01816080932A010895613029F4A7
:1003B00080912A018E7F80932A010895813220F056
:1003C0008AE080932B010895282F30E0F901E45D45
:1003D000FE4F80818617B9F06083F901E871F070F3
:1003E00063E0F595E7956A95E1F7EA5DFE4F2770C2
:1003F000307081E090E002C0880F991F2A95E2F7E3
:100400002081282B20830895EF92FF920F931F9352
:10041000CF93DF93082FEB0161157105A9F010E070
:10042000E82EFF2405C0812F800F0E94DE011F5F90
:10043000E12FF0E0CF018E0D9F1D81972CF4EC0F82
:10044000FD1F6081662379F7DF91CF911F910F9196
:10045000FF90EF9008958F929F92AF92BF92CF92AC
:10046000DF92EF92FF920F931F93DF93CF93CDB75D
:10047000DEB727970FB6F894DEBF0FBECDBF882E2C
:10048000CB018E010F5F1F4FB8010E946504982EAB
:1004900090E006976801C80ED91E0696EE24FF2448
:1004A0005C012E2DEE2011F4698113C080912A0188
:1004B00080FF06C0E91460F4F801EE0DFF1D06C0D0
:1004C000C7018A0D9B1D07971CF0F601608101C0D2
:1004D00060E2822F880D0E94DE010894E11CF11C6D
:1004E0000894C11CD11CF6E0EF16F104D1F6279652
:1004F0000FB6F894DEBF0FBECDBFCF91DF911F9135
:100500000F91FF90EF90DF90CF90BF90AF909F90B2
:100510008F9008958F929F92AF92BF92CF92DF9269
:10052000EF92FF920F931F93DF93CF9300D000D0F1
:1005300000D0CDB7DEB7882ECB018E010F5F1F4FE5
:10054000B8010E94FA03982E90E005976801C80E42
:10055000D91E0596EE24FF245C0180912A0180FFBC
:1005600006C0E91460F4F801EE0DFF1D06C0C701D6
:100570008A0D9B1D05971CF0F601608101C060E2A9
:10058000882D8E0D0E94DE010894E11CF11C089458
:10059000C11CD11CF5E0EF16F104F9F626960FB652
:1005A000F894DEBF0FBECDBFCF91DF911F910F91A9
:1005B000FF90EF90DF90CF90BF90AF909F908F9083
:1005C00008958F929F92AF92BF92CF92DF92EF9257
:1005D000FF920F931F93DF93CF9300D000D00F9221
:1005E000CDB7DEB7882E862F8E010F5F1F4FB80163
:1005F0000E94E803982E90E004976801C80ED91E67
:100600000496EE24FF245C012E2DEE2011F4698166
:1006100013C080912A0180FF06C0E91460F4F8013C
:10062000EE0DFF1D06C0C7018A0D9B1D05971CF02E
:10063000F601608101C060E2822F880D0E94DE0118
:100640000894E11CF11C0894C11CD11CF4E0EF16C5
:10065000F104D1F60F900F900F900F900F90CF9163
:10066000DF911F910F91FF90EF90DF90CF90BF909F
:10067000AF909F908F9008958F929F92AF92BF926C
:10068000CF92DF92EF92FF920F931F93DF93CF935E
:1006900000D000D0CDB7DEB7882E862F8E010F5F39
:1006A0001F4FB8010E949003982E90E003976801B5
:1006B000C80ED91E0396EE24FF245C0180912A0106
:1006C00080FF06C0E91460F4F801EE0DFF1D06C0BE
:1006D000C7018A0D9B1D03971CF0F601608101C0C4
:1006E00060E2882D8E0D0E94DE010894E11CF11C51
:1006F0000894C11CD11CF3E0EF16F104F9F60F9039
:100700000F900F900F90CF91DF911F910F91FF905D
:10071000EF90DF90CF90BF90AF909F908F90089513
:10072000CF92DF92EF92FF920F931F93DF93CF93BD
:1007300000D00F92CDB7DEB7182FAB01DE011196B6
:10074000EAE0F1E083E001900D928150E1F77E0153
:100750000894E11CF11CD70120E091E000E384E063
:10076000C82ED12CCC0EDD1E3C91131788F0812FA2
:10077000632F0E947C06FA01E20FF11D805D8083E9
:100780008053839F802D1124181B2F5F90E00BC096
:10079000913021F48A2F8E19823029F4FA01E20F68
:1007A000F11D00832F5F1196AC15BD05E9F6420FD0
:1007B000511DFA011082822F0F900F900F90CF9150
:1007C000DF911F910F91FF90EF90DF90CF900895F0
:1007D000982FFB016F5F7F4F87FF05C08DE28083FD
:1007E000892F819503C08BE28083892F0E9490031B
:1007F0008F5F0895AF92BF92CF92DF92EF92FF92F8
:100800000F931F93DF93CF93CDB7DEB72A970FB621
:10081000F894DEBF0FBECDBF6C018B01DE011196D7
:10082000E0E0F1E08AE001900D928150E1F77E0175
:100830000894E11CF11CBB2440E081E090E3A92E68
:10084000F70120813181C216D306B8F0C601B90183
:100850000E948806F801E40FF11D605D608360531B
:1008600070E0629FC001639F900D729F900D1124F4
:10087000C81AD90A4F5F80E00AC0813019F4F4E049
:10088000BF1629F4F801E40FF11DA0824F5FB39465
:1008900022E030E0E20EF31E35E0B31689F6040FD5
:1008A000111DF8011082842F2A960FB6F894DEBF2E
:1008B0000FBECDBFCF91DF911F910F91FF90EF90B1
:1008C000DF90CF90BF90AF9008959C01FB016F5FC8
:1008D0007F4F97FF07C08DE2808388279927821B6F
:1008E000930B03C08BE28083C9010E94FA038F5FE0
:1008F000089582E084BD85BD80936E0089EF87BD39
:1009000018BC08958FEF9FEF909389008093880023
:1009100010928B0010928A0010928700109286002D
:100920001092800088E0809381001092820082E023
:1009300080936F0008959FEF92B911B815B894B9DC
:1009400083E088B997B99BB91AB882E084BD85BDA8
:1009500080936E0089EF87BD18BC0E94820484ECEE
:1009600099E024EF31E0F9013197F1F70197D9F7D8
:10097000419884EC99E024EF31E0F9013197F1F7E7
:100980000197D9F70E948100789408951F920F92E1
:100990000FB60F9211248F939F9380914C01816029
:1009A00080934C0190912101992331F480914C0165
:1009B000826080934C0104C0973C11F480E002C037
:1009C000892F8F5F809321019F918F910F900FBE90
:1009D0000F901F9018951F920F920FB60F9211242F
:1009E0001F932F933F934F935F936F937F938F93B7
:1009F0009F93AF93BF93EF93FF9310911D01173017
:100A000008F525B141E050E0CA01012E02C0880F6F
:100A1000991F0A94E2F78095822385B91F5F1730EA
:100A200089F085B1012E02C0440F551F0A94E2F7E8
:100A3000842B85B9812F0E943B0590938900809378
:100A4000880005C0809181008E7F80938100109383
:100A50001D01FF91EF91BF91AF919F918F917F9178
:100A60006F915F914F913F912F911F910F900FBE0A
:100A70000F901F901895EF92FF920F931F93CF93B3
:100A8000DF93082F10E0F801E55AFE4F208133274D
:100A900027FD3095F801EC5AFE4F8081992787FD9C
:100AA0009095280F391F8EE890E0289FA001299F7C
:100AB000500D389F500D1124C1E0D0E0002E02C02F
:100AC000CC0FDD1F0A94E2F7CE01867790708C1769
:100AD0009D0719F4509541955F4F20E3E22E25E7DD
:100AE000F22EE40EF51EF801E35BFE4F90818EE8D6
:100AF000989FC001112462E370E00E949C06AB0144
:100B000022E06837720714F047E752E0F801EE0F71
:100B1000FF1FEE59FE4F0190F081E02DB7016E1BD3
:100B20007F0B461757075CF4BE0160958091220148
:100B30008623809322019A012E0F3F1F16C088271B
:100B40009927841B950B20912201681779074CF493
:100B5000BE0160952623209322019F01241B350BA3
:100B600004C02C2B209322019701000F111F0E5956
:100B70001E4FF80131832083C901DF91CF911F916E
:100B80000F91FF90EF900895EF92FF920F931F93B4
:100B90009DEF9093540182E080935501909356010C
:100BA00080935701109258018CE080935901109264
:100BB0005A01A2E6B1E080E090E020E335E740E5AD
:100BC0002D933D93FC01E55AFE4F1082FC01E35B3F
:100BD000FE4F408301968730910591F70E949B0458
:100BE00080E06DE071E00E94040280E167E171E065
:100BF0000E94040200E010E04EECE42E32E3F32EFB
:100C000080914C0180FF07C080914C018E7F8093C2
:100C10004C010E94A20080914C0181FF2BC0809169
:100C20004C018D7F80934C0110921D0180E00E9449
:100C30003B059093890080938800809181008160BA
:100C400080938100289A60912301709124016F5F45
:100C50007F4F709324016093230186E10E948A02F2
:100C6000093111F00F5F31F480914C018460809361
:100C70004C0100E080914C0182FFC2CF80914C0179
:100C80008B7F80934C01112341F4EBE5F1E011924D
:100C900081E0E236F807D9F72DC0113069F0123043
:100CA00049F4F0925B01F0925C01F0925D01F092E8
:100CB0005E010AC0133069F410925B0110925C016E
:100CC00010925D0110925E0110925F01109260011E
:100CD00011C0143011F01FEF0DC0E0925B01E092E3
:100CE0005C01E0925D01E0925E0110925F01109262
:100CF000600110E01F5F84CF991B79E004C0991F49
:100D0000961708F0961B881F7A95C9F78095089565
:100D1000AA1BBB1B51E107C0AA1FBB1FA617B70721
:100D200010F0A61BB70B881F991F5A95A9F780953D
:100D30009095BC01CD01089597FB092E07260AD096
:100D400077FD04D0E5DF06D000201AF47095619598
:100D50007F4F0895F6F7909581959F4F0895F894E9
:020D6000FFCFC3
:100D62001027E80364000A000100640A01556E6955
:0E0D720074205A65726F0054696D653A00076F
:00000001FF
